{
  "address": "0xCE2330E60c6cDf86eb77745a52334193c07F1Da9",
  "abi": [
    {
      "inputs": [
        {
          "internalType": "address",
          "name": "_admin",
          "type": "address"
        }
      ],
      "stateMutability": "nonpayable",
      "type": "constructor"
    },
    {
      "inputs": [],
      "name": "AccessControlBadConfirmation",
      "type": "error"
    },
    {
      "inputs": [
        {
          "internalType": "address",
          "name": "account",
          "type": "address"
        },
        {
          "internalType": "bytes32",
          "name": "neededRole",
          "type": "bytes32"
        }
      ],
      "name": "AccessControlUnauthorizedAccount",
      "type": "error"
    },
    {
      "inputs": [
        {
          "internalType": "address",
          "name": "target",
          "type": "address"
        }
      ],
      "name": "AddressEmptyCode",
      "type": "error"
    },
    {
      "inputs": [
        {
          "internalType": "address",
          "name": "account",
          "type": "address"
        }
      ],
      "name": "AddressInsufficientBalance",
      "type": "error"
    },
    {
      "inputs": [],
      "name": "FailedInnerCall",
      "type": "error"
    },
    {
      "inputs": [],
      "name": "InvalidAmount",
      "type": "error"
    },
    {
      "inputs": [],
      "name": "InvalidParams",
      "type": "error"
    },
    {
      "inputs": [],
      "name": "ReentrancyGuardReentrantCall",
      "type": "error"
    },
    {
      "inputs": [
        {
          "internalType": "address",
          "name": "token",
          "type": "address"
        }
      ],
      "name": "SafeERC20FailedOperation",
      "type": "error"
    },
    {
      "anonymous": false,
      "inputs": [
        {
          "indexed": true,
          "internalType": "bytes32",
          "name": "key",
          "type": "bytes32"
        },
        {
          "indexed": true,
          "internalType": "address",
          "name": "token",
          "type": "address"
        },
        {
          "indexed": false,
          "internalType": "uint256",
          "name": "amount",
          "type": "uint256"
        }
      ],
      "name": "Deposit",
      "type": "event"
    },
    {
      "anonymous": false,
      "inputs": [
        {
          "indexed": true,
          "internalType": "bytes32",
          "name": "role",
          "type": "bytes32"
        },
        {
          "indexed": true,
          "internalType": "bytes32",
          "name": "previousAdminRole",
          "type": "bytes32"
        },
        {
          "indexed": true,
          "internalType": "bytes32",
          "name": "newAdminRole",
          "type": "bytes32"
        }
      ],
      "name": "RoleAdminChanged",
      "type": "event"
    },
    {
      "anonymous": false,
      "inputs": [
        {
          "indexed": true,
          "internalType": "bytes32",
          "name": "role",
          "type": "bytes32"
        },
        {
          "indexed": true,
          "internalType": "address",
          "name": "account",
          "type": "address"
        },
        {
          "indexed": true,
          "internalType": "address",
          "name": "sender",
          "type": "address"
        }
      ],
      "name": "RoleGranted",
      "type": "event"
    },
    {
      "anonymous": false,
      "inputs": [
        {
          "indexed": true,
          "internalType": "bytes32",
          "name": "role",
          "type": "bytes32"
        },
        {
          "indexed": true,
          "internalType": "address",
          "name": "account",
          "type": "address"
        },
        {
          "indexed": true,
          "internalType": "address",
          "name": "sender",
          "type": "address"
        }
      ],
      "name": "RoleRevoked",
      "type": "event"
    },
    {
      "anonymous": false,
      "inputs": [
        {
          "indexed": true,
          "internalType": "bytes32",
          "name": "key",
          "type": "bytes32"
        },
        {
          "indexed": true,
          "internalType": "address",
          "name": "token",
          "type": "address"
        },
        {
          "indexed": false,
          "internalType": "uint256",
          "name": "amount",
          "type": "uint256"
        }
      ],
      "name": "Withdraw",
      "type": "event"
    },
    {
      "stateMutability": "payable",
      "type": "fallback"
    },
    {
      "inputs": [],
      "name": "ADMIN_ROLE",
      "outputs": [
        {
          "internalType": "bytes32",
          "name": "",
          "type": "bytes32"
        }
      ],
      "stateMutability": "view",
      "type": "function"
    },
    {
      "inputs": [],
      "name": "DEFAULT_ADMIN_ROLE",
      "outputs": [
        {
          "internalType": "bytes32",
          "name": "",
          "type": "bytes32"
        }
      ],
      "stateMutability": "view",
      "type": "function"
    },
    {
      "inputs": [],
      "name": "KEEPER_ROLE",
      "outputs": [
        {
          "internalType": "bytes32",
          "name": "",
          "type": "bytes32"
        }
      ],
      "stateMutability": "view",
      "type": "function"
    },
    {
      "inputs": [
        {
          "internalType": "address",
          "name": "_token",
          "type": "address"
        },
        {
          "internalType": "uint256",
          "name": "_amount",
          "type": "uint256"
        }
      ],
      "name": "addPool",
      "outputs": [],
      "stateMutability": "payable",
      "type": "function"
    },
    {
      "inputs": [],
      "name": "chainId",
      "outputs": [
        {
          "internalType": "uint256",
          "name": "",
          "type": "uint256"
        }
      ],
      "stateMutability": "view",
      "type": "function"
    },
    {
      "inputs": [
        {
          "internalType": "bytes32",
          "name": "_key",
          "type": "bytes32"
        },
        {
          "internalType": "address",
          "name": "_token",
          "type": "address"
        },
        {
          "internalType": "uint256",
          "name": "_amount",
          "type": "uint256"
        },
        {
          "components": [
            {
              "internalType": "bytes32",
              "name": "r",
              "type": "bytes32"
            },
            {
              "internalType": "bytes32",
              "name": "s",
              "type": "bytes32"
            },
            {
              "internalType": "uint8",
              "name": "v",
              "type": "uint8"
            }
          ],
          "internalType": "struct Sig",
          "name": "_sig",
          "type": "tuple"
        }
      ],
      "name": "deposit",
      "outputs": [],
      "stateMutability": "payable",
      "type": "function"
    },
    {
      "inputs": [
        {
          "internalType": "bytes32",
          "name": "role",
          "type": "bytes32"
        }
      ],
      "name": "getRoleAdmin",
      "outputs": [
        {
          "internalType": "bytes32",
          "name": "",
          "type": "bytes32"
        }
      ],
      "stateMutability": "view",
      "type": "function"
    },
    {
      "inputs": [
        {
          "internalType": "bytes32",
          "name": "role",
          "type": "bytes32"
        },
        {
          "internalType": "address",
          "name": "account",
          "type": "address"
        }
      ],
      "name": "grantRole",
      "outputs": [],
      "stateMutability": "nonpayable",
      "type": "function"
    },
    {
      "inputs": [
        {
          "internalType": "bytes32",
          "name": "role",
          "type": "bytes32"
        },
        {
          "internalType": "address",
          "name": "account",
          "type": "address"
        }
      ],
      "name": "hasRole",
      "outputs": [
        {
          "internalType": "bool",
          "name": "",
          "type": "bool"
        }
      ],
      "stateMutability": "view",
      "type": "function"
    },
    {
      "inputs": [
        {
          "internalType": "bytes32",
          "name": "role",
          "type": "bytes32"
        },
        {
          "internalType": "address",
          "name": "callerConfirmation",
          "type": "address"
        }
      ],
      "name": "renounceRole",
      "outputs": [],
      "stateMutability": "nonpayable",
      "type": "function"
    },
    {
      "inputs": [
        {
          "internalType": "bytes32",
          "name": "role",
          "type": "bytes32"
        },
        {
          "internalType": "address",
          "name": "account",
          "type": "address"
        }
      ],
      "name": "revokeRole",
      "outputs": [],
      "stateMutability": "nonpayable",
      "type": "function"
    },
    {
      "inputs": [
        {
          "internalType": "bytes4",
          "name": "interfaceId",
          "type": "bytes4"
        }
      ],
      "name": "supportsInterface",
      "outputs": [
        {
          "internalType": "bool",
          "name": "",
          "type": "bool"
        }
      ],
      "stateMutability": "view",
      "type": "function"
    },
    {
      "inputs": [
        {
          "internalType": "bytes32",
          "name": "_key",
          "type": "bytes32"
        },
        {
          "internalType": "address",
          "name": "_to",
          "type": "address"
        },
        {
          "internalType": "address",
          "name": "_token",
          "type": "address"
        },
        {
          "internalType": "uint256",
          "name": "_amount",
          "type": "uint256"
        }
      ],
      "name": "withdraw",
      "outputs": [],
      "stateMutability": "nonpayable",
      "type": "function"
    },
    {
      "inputs": [
        {
          "internalType": "address",
          "name": "_token",
          "type": "address"
        },
        {
          "internalType": "address",
          "name": "_to",
          "type": "address"
        },
        {
          "internalType": "uint256",
          "name": "_amount",
          "type": "uint256"
        }
      ],
      "name": "withdrawPool",
      "outputs": [],
      "stateMutability": "nonpayable",
      "type": "function"
    },
    {
      "stateMutability": "payable",
      "type": "receive"
    }
  ],
  "transactionHash": "0xa67d7d4523d717e68a27f9254d3c071fd4935d893cfe13b5effdff7189302df6",
  "args": [
    "0xf5CA36c9873d61Bc28C117BD470981Ef6647A685"
  ],
  "numDeployments": 1,
  "solcInputHash": "358f0f6ffd3b60ad0afeddaea7f5c674",
  "bytecode": "0x608060405234801561001057600080fd5b5060405161102b38038061102b83398101604081905261002f91610188565b600180554660028190556100717f4f78afe9dfc9a0cb0441c27b9405070cd2a48b490636a7bdd09f355e33a5d7de60008051602061100b833981519152610091565b61008960008051602061100b833981519152836100dc565b5050506101b8565b600082815260208190526040808220600101805490849055905190918391839186917fbd79b86ffe0ab8e8776151514217cd7cacd52c909f66475c3af44e129f0b00ff9190a4505050565b6000828152602081815260408083206001600160a01b038516845290915281205460ff1661017e576000838152602081815260408083206001600160a01b03861684529091529020805460ff191660011790556101363390565b6001600160a01b0316826001600160a01b0316847f2f8788117e7eff1d82e926ec794901d17c78024a50270940304540a733656f0d60405160405180910390a4506001610182565b5060005b92915050565b60006020828403121561019a57600080fd5b81516001600160a01b03811681146101b157600080fd5b9392505050565b610e44806101c76000396000f3fe6080604052600436106100b15760003560e01c806301e15c3d146100ef57806301ffc9a714610104578063248a9ca3146101395780632f2ff15d1461016757806332a9caba14610187578063364bc15a1461019a57806336568abe146101bc5780634c9d7f59146101dc57806375b238fc146101fc5780638e0cc1761461021e57806391d148541461023e5780639a8a05921461025e578063a217fddf14610274578063d547741f14610289576100d7565b366100d75760405162461bcd60e51b81526004016100ce90610b7e565b60405180910390fd5b60405162461bcd60e51b81526004016100ce90610b7e565b6101026100fd366004610bc4565b6102a9565b005b34801561011057600080fd5b5061012461011f366004610c14565b610367565b60405190151581526020015b60405180910390f35b34801561014557600080fd5b50610159610154366004610c3e565b61039e565b604051908152602001610130565b34801561017357600080fd5b50610102610182366004610c57565b6103b3565b610102610195366004610c83565b6103d5565b3480156101a657600080fd5b50610159600080516020610def83398151915281565b3480156101c857600080fd5b506101026101d7366004610c57565b61046f565b3480156101e857600080fd5b506101026101f7366004610cad565b6104a7565b34801561020857600080fd5b50610159600080516020610dcf83398151915281565b34801561022a57600080fd5b50610102610239366004610ce9565b610537565b34801561024a57600080fd5b50610124610259366004610c57565b6105df565b34801561026a57600080fd5b5061015960025481565b34801561028057600080fd5b50610159600081565b34801561029557600080fd5b506101026102a4366004610c57565b610608565b6102b63385858585610624565b6102d357604051635435b28960e11b815260040160405180910390fd5b6001600160a01b038316610306578134146103015760405163162908e360e11b815260040160405180910390fd5b61031d565b61031d335b6001600160a01b03851690308561076f565b826001600160a01b0316847f182fa52899142d44ff5c45a6354d3b3e868d5b07db6a65580b39bd321bdaf8ac8460405161035991815260200190565b60405180910390a350505050565b60006001600160e01b03198216637965db0b60e01b148061039857506301ffc9a760e01b6001600160e01b03198316145b92915050565b60009081526020819052604090206001015490565b6103bc8261039e565b6103c5816107d6565b6103cf83836107e3565b50505050565b600080516020610dcf8339815191526103ed816107d6565b6001600160a01b0383166104205781341461041b5760405163162908e360e11b815260040160405180910390fd5b610429565b6104293361030b565b6040518281526001600160a01b038416906000907f182fa52899142d44ff5c45a6354d3b3e868d5b07db6a65580b39bd321bdaf8ac9060200160405180910390a3505050565b6001600160a01b03811633146104985760405163334bd91960e11b815260040160405180910390fd5b6104a28282610875565b505050565b600080516020610dcf8339815191526104bf816107d6565b6001600160a01b0384166104e5576104e06001600160a01b038416836108e0565b6104f9565b6104f96001600160a01b0385168484610977565b6040518281526001600160a01b038516906000907fe7284ffe0c70ad2f3b0aa15cde1cfe95f736935651a138725b21fd168edc5d6a90602001610359565b61053f61099d565b600080516020610def833981519152610557816107d6565b6001600160a01b03831661057d576105786001600160a01b038516836108e0565b610591565b6105916001600160a01b0384168584610977565b826001600160a01b0316857fe7284ffe0c70ad2f3b0aa15cde1cfe95f736935651a138725b21fd168edc5d6a846040516105cd91815260200190565b60405180910390a3506103cf60018055565b6000918252602082815260408084206001600160a01b0393909316845291905290205460ff1690565b6106118261039e565b61061a816107d6565b6103cf8383610875565b6002546040516001600160601b0319606088811b821660208401526034830188905286901b166054820152606881018490526088810191909152600090819060a8016040516020818303038152906040528051906020012090506000816040516020016106bc91907b0ca2ba3432b932bab69029b4b3b732b21026b2b9b9b0b3b29d05199960211b8152601c810191909152603c0190565b60405160208183030381529060405280519060200120905060006001828660400160208101906106ec9190610d2d565b604080516000815260208181018084529490945260ff909216908201528735606082015290870135608082015260a0016020604051602081039080840390855afa15801561073e573d6000803e3d6000fd5b505050602060405103519050610762600080516020610def833981519152826105df565b9998505050505050505050565b6040516001600160a01b0384811660248301528381166044830152606482018390526103cf9186918216906323b872dd906084015b604051602081830303815290604052915060e01b6020820180516001600160e01b0383818316178352505050506109c7565b6107e08133610a21565b50565b60006107ef83836105df565b61086d576000838152602081815260408083206001600160a01b03861684529091529020805460ff191660011790556108253390565b6001600160a01b0316826001600160a01b0316847f2f8788117e7eff1d82e926ec794901d17c78024a50270940304540a733656f0d60405160405180910390a4506001610398565b506000610398565b600061088183836105df565b1561086d576000838152602081815260408083206001600160a01b0386168085529252808320805460ff1916905551339286917ff6391f5c32d9c69d2a47ea670b442974b53935d1edc7fd64eb21e047a839171b9190a4506001610398565b80471015610903573060405163cd78605960e01b81526004016100ce9190610d50565b6000826001600160a01b03168260405160006040518083038185875af1925050503d8060008114610950576040519150601f19603f3d011682016040523d82523d6000602084013e610955565b606091505b50509050806104a257604051630a12f52160e11b815260040160405180910390fd5b6104a283846001600160a01b031663a9059cbb85856040516024016107a4929190610d64565b6002600154036109c057604051633ee5aeb560e01b815260040160405180910390fd5b6002600155565b60006109dc6001600160a01b03841683610a50565b90508051600014158015610a015750808060200190518101906109ff9190610d7d565b155b156104a25782604051635274afe760e01b81526004016100ce9190610d50565b610a2b82826105df565b610a4c57808260405163e2517d3f60e01b81526004016100ce929190610d64565b5050565b6060610a5e83836000610a65565b9392505050565b606081471015610a8a573060405163cd78605960e01b81526004016100ce9190610d50565b600080856001600160a01b03168486604051610aa69190610d9f565b60006040518083038185875af1925050503d8060008114610ae3576040519150601f19603f3d011682016040523d82523d6000602084013e610ae8565b606091505b5091509150610af8868383610b02565b9695505050505050565b606082610b1757610b1282610b55565b610a5e565b8151158015610b2e57506001600160a01b0384163b155b15610b4e5783604051639996b31560e01b81526004016100ce9190610d50565b5080610a5e565b805115610b655780518082602001fd5b604051630a12f52160e11b815260040160405180910390fd5b60208082526010908201526f24b73b30b634b2103a3930b739b332b960811b604082015260600190565b80356001600160a01b0381168114610bbf57600080fd5b919050565b60008060008084860360c0811215610bdb57600080fd5b85359450610beb60208701610ba8565b9350604086013592506060605f1982011215610c0657600080fd5b509295919450926060019150565b600060208284031215610c2657600080fd5b81356001600160e01b031981168114610a5e57600080fd5b600060208284031215610c5057600080fd5b5035919050565b60008060408385031215610c6a57600080fd5b82359150610c7a60208401610ba8565b90509250929050565b60008060408385031215610c9657600080fd5b610c9f83610ba8565b946020939093013593505050565b600080600060608486031215610cc257600080fd5b610ccb84610ba8565b9250610cd960208501610ba8565b9150604084013590509250925092565b60008060008060808587031215610cff57600080fd5b84359350610d0f60208601610ba8565b9250610d1d60408601610ba8565b9396929550929360600135925050565b600060208284031215610d3f57600080fd5b813560ff81168114610a5e57600080fd5b6001600160a01b0391909116815260200190565b6001600160a01b03929092168252602082015260400190565b600060208284031215610d8f57600080fd5b81518015158114610a5e57600080fd5b6000825160005b81811015610dc05760208186018101518583015201610da6565b50600092019182525091905056fea729ef4e25027bc652fc8b5c4d1d902947361fa7c8e7b4905e877823f27331b34f78afe9dfc9a0cb0441c27b9405070cd2a48b490636a7bdd09f355e33a5d7dea26469706673582212205e8d768f0869be6c85a266fe06d2e22dc3dfdc68d78cfbe41499c213f79777c264736f6c63430008180033a729ef4e25027bc652fc8b5c4d1d902947361fa7c8e7b4905e877823f27331b3",
  "devdoc": {
    "errors": {
      "AccessControlBadConfirmation()": [
        {
          "details": "The caller of a function is not the expected one. NOTE: Don't confuse with {AccessControlUnauthorizedAccount}."
        }
      ],
      "AccessControlUnauthorizedAccount(address,bytes32)": [
        {
          "details": "The `account` is missing a role."
        }
      ],
      "AddressEmptyCode(address)": [
        {
          "details": "There's no code at `target` (it is not a contract)."
        }
      ],
      "AddressInsufficientBalance(address)": [
        {
          "details": "The ETH balance of the account is not enough to perform the operation."
        }
      ],
      "FailedInnerCall()": [
        {
          "details": "A call to an address target failed. The target may have reverted."
        }
      ],
      "ReentrancyGuardReentrantCall()": [
        {
          "details": "Unauthorized reentrant call."
        }
      ],
      "SafeERC20FailedOperation(address)": [
        {
          "details": "An operation with an ERC20 token failed."
        }
      ]
    },
    "events": {
      "RoleAdminChanged(bytes32,bytes32,bytes32)": {
        "details": "Emitted when `newAdminRole` is set as ``role``'s admin role, replacing `previousAdminRole` `DEFAULT_ADMIN_ROLE` is the starting admin for all roles, despite {RoleAdminChanged} not being emitted signaling this."
      },
      "RoleGranted(bytes32,address,address)": {
        "details": "Emitted when `account` is granted `role`. `sender` is the account that originated the contract call, an admin role bearer except when using {AccessControl-_setupRole}."
      },
      "RoleRevoked(bytes32,address,address)": {
        "details": "Emitted when `account` is revoked `role`. `sender` is the account that originated the contract call:   - if using `revokeRole`, it is the admin role bearer   - if using `renounceRole`, it is the role bearer (i.e. `account`)"
      }
    },
    "kind": "dev",
    "methods": {
      "addPool(address,uint256)": {
        "details": "owner can withdraw tokens of contract"
      },
      "constructor": {
        "details": "initialize bridge",
        "params": {
          "_admin": "admin address of bridge"
        }
      },
      "deposit(bytes32,address,uint256,(bytes32,bytes32,uint8))": {
        "details": "deposit token to bridge. Users call this function",
        "params": {
          "_amount": "token amount to bridge",
          "_key": "transaction key",
          "_sig": "signature of keeper",
          "_token": "deposit token"
        }
      },
      "getRoleAdmin(bytes32)": {
        "details": "Returns the admin role that controls `role`. See {grantRole} and {revokeRole}. To change a role's admin, use {_setRoleAdmin}."
      },
      "grantRole(bytes32,address)": {
        "details": "Grants `role` to `account`. If `account` had not been already granted `role`, emits a {RoleGranted} event. Requirements: - the caller must have ``role``'s admin role. May emit a {RoleGranted} event."
      },
      "hasRole(bytes32,address)": {
        "details": "Returns `true` if `account` has been granted `role`."
      },
      "renounceRole(bytes32,address)": {
        "details": "Revokes `role` from the calling account. Roles are often managed via {grantRole} and {revokeRole}: this function's purpose is to provide a mechanism for accounts to lose their privileges if they are compromised (such as when a trusted device is misplaced). If the calling account had been revoked `role`, emits a {RoleRevoked} event. Requirements: - the caller must be `callerConfirmation`. May emit a {RoleRevoked} event."
      },
      "revokeRole(bytes32,address)": {
        "details": "Revokes `role` from `account`. If `account` had been granted `role`, emits a {RoleRevoked} event. Requirements: - the caller must have ``role``'s admin role. May emit a {RoleRevoked} event."
      },
      "supportsInterface(bytes4)": {
        "details": "See {IERC165-supportsInterface}."
      },
      "withdraw(bytes32,address,address,uint256)": {
        "details": "send token to user. Keepers call this function to send btc to users",
        "params": {
          "_amount": "token amount to send",
          "_key": "transaction key",
          "_to": "address of user",
          "_token": "token to withdraw"
        }
      }
    },
    "stateVariables": {
      "ADMIN_ROLE": {
        "details": "roles"
      }
    },
    "title": "Bridge contract        bridges to another networks",
    "version": 1
  },
  "userdoc": {
    "kind": "user",
    "methods": {},
    "version": 1
  },
  "storageLayout": {
    "storage": [
      {
        "astId": 26,
        "contract": "contracts/Bridge.sol:Bridge",
        "label": "_roles",
        "offset": 0,
        "slot": "0",
        "type": "t_mapping(t_bytes32,t_struct(RoleData)21_storage)"
      },
      {
        "astId": 1076,
        "contract": "contracts/Bridge.sol:Bridge",
        "label": "_status",
        "offset": 0,
        "slot": "1",
        "type": "t_uint256"
      },
      {
        "astId": 1197,
        "contract": "contracts/Bridge.sol:Bridge",
        "label": "chainId",
        "offset": 0,
        "slot": "2",
        "type": "t_uint256"
      }
    ],
    "types": {
      "t_address": {
        "encoding": "inplace",
        "label": "address",
        "numberOfBytes": "20"
      },
      "t_bool": {
        "encoding": "inplace",
        "label": "bool",
        "numberOfBytes": "1"
      },
      "t_bytes32": {
        "encoding": "inplace",
        "label": "bytes32",
        "numberOfBytes": "32"
      },
      "t_mapping(t_address,t_bool)": {
        "encoding": "mapping",
        "key": "t_address",
        "label": "mapping(address => bool)",
        "numberOfBytes": "32",
        "value": "t_bool"
      },
      "t_mapping(t_bytes32,t_struct(RoleData)21_storage)": {
        "encoding": "mapping",
        "key": "t_bytes32",
        "label": "mapping(bytes32 => struct AccessControl.RoleData)",
        "numberOfBytes": "32",
        "value": "t_struct(RoleData)21_storage"
      },
      "t_struct(RoleData)21_storage": {
        "encoding": "inplace",
        "label": "struct AccessControl.RoleData",
        "members": [
          {
            "astId": 18,
            "contract": "contracts/Bridge.sol:Bridge",
            "label": "hasRole",
            "offset": 0,
            "slot": "0",
            "type": "t_mapping(t_address,t_bool)"
          },
          {
            "astId": 20,
            "contract": "contracts/Bridge.sol:Bridge",
            "label": "adminRole",
            "offset": 0,
            "slot": "1",
            "type": "t_bytes32"
          }
        ],
        "numberOfBytes": "64"
      },
      "t_uint256": {
        "encoding": "inplace",
        "label": "uint256",
        "numberOfBytes": "32"
      }
    }
  }
}