{
  "address": "0x68879308F83dFaea6D43c9A44a095a732a121a84",
  "abi": [
    {
      "inputs": [
        {
          "internalType": "address",
          "name": "_admin",
          "type": "address"
        }
      ],
      "stateMutability": "nonpayable",
      "type": "constructor"
    },
    {
      "inputs": [],
      "name": "AccessControlBadConfirmation",
      "type": "error"
    },
    {
      "inputs": [
        {
          "internalType": "address",
          "name": "account",
          "type": "address"
        },
        {
          "internalType": "bytes32",
          "name": "neededRole",
          "type": "bytes32"
        }
      ],
      "name": "AccessControlUnauthorizedAccount",
      "type": "error"
    },
    {
      "inputs": [
        {
          "internalType": "address",
          "name": "target",
          "type": "address"
        }
      ],
      "name": "AddressEmptyCode",
      "type": "error"
    },
    {
      "inputs": [
        {
          "internalType": "address",
          "name": "account",
          "type": "address"
        }
      ],
      "name": "AddressInsufficientBalance",
      "type": "error"
    },
    {
      "inputs": [],
      "name": "FailedInnerCall",
      "type": "error"
    },
    {
      "inputs": [],
      "name": "InvalidAmount",
      "type": "error"
    },
    {
      "inputs": [],
      "name": "InvalidParams",
      "type": "error"
    },
    {
      "inputs": [],
      "name": "ReentrancyGuardReentrantCall",
      "type": "error"
    },
    {
      "inputs": [
        {
          "internalType": "address",
          "name": "token",
          "type": "address"
        }
      ],
      "name": "SafeERC20FailedOperation",
      "type": "error"
    },
    {
      "anonymous": false,
      "inputs": [
        {
          "indexed": true,
          "internalType": "bytes32",
          "name": "key",
          "type": "bytes32"
        },
        {
          "indexed": false,
          "internalType": "address",
          "name": "from",
          "type": "address"
        }
      ],
      "name": "Deposit",
      "type": "event"
    },
    {
      "anonymous": false,
      "inputs": [
        {
          "indexed": true,
          "internalType": "bytes32",
          "name": "role",
          "type": "bytes32"
        },
        {
          "indexed": true,
          "internalType": "bytes32",
          "name": "previousAdminRole",
          "type": "bytes32"
        },
        {
          "indexed": true,
          "internalType": "bytes32",
          "name": "newAdminRole",
          "type": "bytes32"
        }
      ],
      "name": "RoleAdminChanged",
      "type": "event"
    },
    {
      "anonymous": false,
      "inputs": [
        {
          "indexed": true,
          "internalType": "bytes32",
          "name": "role",
          "type": "bytes32"
        },
        {
          "indexed": true,
          "internalType": "address",
          "name": "account",
          "type": "address"
        },
        {
          "indexed": true,
          "internalType": "address",
          "name": "sender",
          "type": "address"
        }
      ],
      "name": "RoleGranted",
      "type": "event"
    },
    {
      "anonymous": false,
      "inputs": [
        {
          "indexed": true,
          "internalType": "bytes32",
          "name": "role",
          "type": "bytes32"
        },
        {
          "indexed": true,
          "internalType": "address",
          "name": "account",
          "type": "address"
        },
        {
          "indexed": true,
          "internalType": "address",
          "name": "sender",
          "type": "address"
        }
      ],
      "name": "RoleRevoked",
      "type": "event"
    },
    {
      "anonymous": false,
      "inputs": [
        {
          "indexed": true,
          "internalType": "bytes32",
          "name": "key",
          "type": "bytes32"
        },
        {
          "indexed": false,
          "internalType": "address",
          "name": "to",
          "type": "address"
        }
      ],
      "name": "Withdraw",
      "type": "event"
    },
    {
      "stateMutability": "payable",
      "type": "fallback"
    },
    {
      "inputs": [],
      "name": "ADMIN_ROLE",
      "outputs": [
        {
          "internalType": "bytes32",
          "name": "",
          "type": "bytes32"
        }
      ],
      "stateMutability": "view",
      "type": "function"
    },
    {
      "inputs": [],
      "name": "DEFAULT_ADMIN_ROLE",
      "outputs": [
        {
          "internalType": "bytes32",
          "name": "",
          "type": "bytes32"
        }
      ],
      "stateMutability": "view",
      "type": "function"
    },
    {
      "inputs": [],
      "name": "KEEPER_ROLE",
      "outputs": [
        {
          "internalType": "bytes32",
          "name": "",
          "type": "bytes32"
        }
      ],
      "stateMutability": "view",
      "type": "function"
    },
    {
      "inputs": [],
      "name": "chainId",
      "outputs": [
        {
          "internalType": "uint256",
          "name": "",
          "type": "uint256"
        }
      ],
      "stateMutability": "view",
      "type": "function"
    },
    {
      "inputs": [
        {
          "internalType": "bytes32",
          "name": "_key",
          "type": "bytes32"
        },
        {
          "internalType": "address",
          "name": "_token",
          "type": "address"
        },
        {
          "internalType": "uint256",
          "name": "_amount",
          "type": "uint256"
        },
        {
          "components": [
            {
              "internalType": "bytes32",
              "name": "r",
              "type": "bytes32"
            },
            {
              "internalType": "bytes32",
              "name": "s",
              "type": "bytes32"
            },
            {
              "internalType": "uint8",
              "name": "v",
              "type": "uint8"
            }
          ],
          "internalType": "struct Sig",
          "name": "_sig",
          "type": "tuple"
        }
      ],
      "name": "deposit",
      "outputs": [],
      "stateMutability": "payable",
      "type": "function"
    },
    {
      "inputs": [
        {
          "internalType": "bytes32",
          "name": "role",
          "type": "bytes32"
        }
      ],
      "name": "getRoleAdmin",
      "outputs": [
        {
          "internalType": "bytes32",
          "name": "",
          "type": "bytes32"
        }
      ],
      "stateMutability": "view",
      "type": "function"
    },
    {
      "inputs": [
        {
          "internalType": "bytes32",
          "name": "role",
          "type": "bytes32"
        },
        {
          "internalType": "address",
          "name": "account",
          "type": "address"
        }
      ],
      "name": "grantRole",
      "outputs": [],
      "stateMutability": "nonpayable",
      "type": "function"
    },
    {
      "inputs": [
        {
          "internalType": "bytes32",
          "name": "role",
          "type": "bytes32"
        },
        {
          "internalType": "address",
          "name": "account",
          "type": "address"
        }
      ],
      "name": "hasRole",
      "outputs": [
        {
          "internalType": "bool",
          "name": "",
          "type": "bool"
        }
      ],
      "stateMutability": "view",
      "type": "function"
    },
    {
      "inputs": [
        {
          "internalType": "bytes32",
          "name": "role",
          "type": "bytes32"
        },
        {
          "internalType": "address",
          "name": "callerConfirmation",
          "type": "address"
        }
      ],
      "name": "renounceRole",
      "outputs": [],
      "stateMutability": "nonpayable",
      "type": "function"
    },
    {
      "inputs": [
        {
          "internalType": "bytes32",
          "name": "role",
          "type": "bytes32"
        },
        {
          "internalType": "address",
          "name": "account",
          "type": "address"
        }
      ],
      "name": "revokeRole",
      "outputs": [],
      "stateMutability": "nonpayable",
      "type": "function"
    },
    {
      "inputs": [
        {
          "internalType": "bytes4",
          "name": "interfaceId",
          "type": "bytes4"
        }
      ],
      "name": "supportsInterface",
      "outputs": [
        {
          "internalType": "bool",
          "name": "",
          "type": "bool"
        }
      ],
      "stateMutability": "view",
      "type": "function"
    },
    {
      "inputs": [
        {
          "internalType": "bytes32",
          "name": "_key",
          "type": "bytes32"
        },
        {
          "internalType": "address",
          "name": "_to",
          "type": "address"
        },
        {
          "internalType": "address",
          "name": "_token",
          "type": "address"
        },
        {
          "internalType": "uint256",
          "name": "_amount",
          "type": "uint256"
        }
      ],
      "name": "withdraw",
      "outputs": [],
      "stateMutability": "nonpayable",
      "type": "function"
    },
    {
      "inputs": [
        {
          "internalType": "address",
          "name": "_token",
          "type": "address"
        },
        {
          "internalType": "address",
          "name": "_to",
          "type": "address"
        },
        {
          "internalType": "uint256",
          "name": "_amount",
          "type": "uint256"
        }
      ],
      "name": "withdrawPool",
      "outputs": [],
      "stateMutability": "nonpayable",
      "type": "function"
    },
    {
      "stateMutability": "payable",
      "type": "receive"
    }
  ],
  "transactionHash": "0xab9d2a9de9573dca90ac05cd4895fcf1f59f927d50de59f46a284d29cbe83545",
  "args": [
    "0xf5CA36c9873d61Bc28C117BD470981Ef6647A685"
  ],
  "numDeployments": 1,
  "solcInputHash": "66db46289b4e70c6c8019c8609657a00",
  "bytecode": "0x608060405234801561001057600080fd5b50604051610eb4380380610eb483398101604081905261002f91610188565b600180554660028190556100717f4f78afe9dfc9a0cb0441c27b9405070cd2a48b490636a7bdd09f355e33a5d7de600080516020610e94833981519152610091565b610089600080516020610e94833981519152836100dc565b5050506101b8565b600082815260208190526040808220600101805490849055905190918391839186917fbd79b86ffe0ab8e8776151514217cd7cacd52c909f66475c3af44e129f0b00ff9190a4505050565b6000828152602081815260408083206001600160a01b038516845290915281205460ff1661017e576000838152602081815260408083206001600160a01b03861684529091529020805460ff191660011790556101363390565b6001600160a01b0316826001600160a01b0316847f2f8788117e7eff1d82e926ec794901d17c78024a50270940304540a733656f0d60405160405180910390a4506001610182565b5060005b92915050565b60006020828403121561019a57600080fd5b81516001600160a01b03811681146101b157600080fd5b9392505050565b610ccd806101c76000396000f3fe6080604052600436106100a65760003560e01c806301e15c3d146100e457806301ffc9a7146100f9578063248a9ca31461012e5780632f2ff15d1461015c578063364bc15a1461017c57806336568abe1461019e5780634c9d7f59146101be57806375b238fc146101de5780638e0cc1761461021257806391d14854146102325780639a8a059214610252578063a217fddf14610268578063d547741f1461027d576100cc565b366100cc5760405162461bcd60e51b81526004016100c390610a51565b60405180910390fd5b60405162461bcd60e51b81526004016100c390610a51565b6100f76100f2366004610a97565b61029d565b005b34801561010557600080fd5b50610119610114366004610ae7565b61034d565b60405190151581526020015b60405180910390f35b34801561013a57600080fd5b5061014e610149366004610b11565b610384565b604051908152602001610125565b34801561016857600080fd5b506100f7610177366004610b2a565b610399565b34801561018857600080fd5b5061014e600080516020610c7883398151915281565b3480156101aa57600080fd5b506100f76101b9366004610b2a565b6103bb565b3480156101ca57600080fd5b506100f76101d9366004610b56565b6103f3565b3480156101ea57600080fd5b5061014e7fa729ef4e25027bc652fc8b5c4d1d902947361fa7c8e7b4905e877823f27331b381565b34801561021e57600080fd5b506100f761022d366004610b92565b610416565b34801561023e57600080fd5b5061011961024d366004610b2a565b6104b2565b34801561025e57600080fd5b5061014e60025481565b34801561027457600080fd5b5061014e600081565b34801561028957600080fd5b506100f7610298366004610b2a565b6104db565b6102aa33858585856104f7565b6102c757604051635435b28960e11b815260040160405180910390fd5b6001600160a01b0383166102fa578134146102f55760405163162908e360e11b815260040160405180910390fd5b61030f565b61030f6001600160a01b038416333085610642565b837f486242080fa32fab3d0c1b35cf4b72db37f659787c4ee1a3cebcea1f7274c8433360405161033f9190610bd6565b60405180910390a250505050565b60006001600160e01b03198216637965db0b60e01b148061037e57506301ffc9a760e01b6001600160e01b03198316145b92915050565b60009081526020819052604090206001015490565b6103a282610384565b6103ab816106a9565b6103b583836106b6565b50505050565b6001600160a01b03811633146103e45760405163334bd91960e11b815260040160405180910390fd5b6103ee8282610748565b505050565b600080516020610c7883398151915261040b816106a9565b6103b58484846107b3565b61041e6107d9565b600080516020610c78833981519152610436816106a9565b6001600160a01b03831661045c576104576001600160a01b03851683610803565b610470565b6104706001600160a01b03841685846107b3565b847f0448f4c3f7e202963aee589c062ccd162bcad2d1e20f233e7092cf77dacc61df856040516104a09190610bd6565b60405180910390a2506103b560018055565b6000918252602082815260408084206001600160a01b0393909316845291905290205460ff1690565b6104e482610384565b6104ed816106a9565b6103b58383610748565b6002546040516001600160601b0319606088811b821660208401526034830188905286901b166054820152606881018490526088810191909152600090819060a80160405160208183030381529060405280519060200120905060008160405160200161058f91907b0ca2ba3432b932bab69029b4b3b732b21026b2b9b9b0b3b29d05199960211b8152601c810191909152603c0190565b60405160208183030381529060405280519060200120905060006001828660400160208101906105bf9190610bea565b604080516000815260208181018084529490945260ff909216908201528735606082015290870135608082015260a0016020604051602081039080840390855afa158015610611573d6000803e3d6000fd5b505050602060405103519050610635600080516020610c78833981519152826104b2565b9998505050505050505050565b6040516001600160a01b0384811660248301528381166044830152606482018390526103b59186918216906323b872dd906084015b604051602081830303815290604052915060e01b6020820180516001600160e01b03838183161783525050505061089a565b6106b381336108f4565b50565b60006106c283836104b2565b610740576000838152602081815260408083206001600160a01b03861684529091529020805460ff191660011790556106f83390565b6001600160a01b0316826001600160a01b0316847f2f8788117e7eff1d82e926ec794901d17c78024a50270940304540a733656f0d60405160405180910390a450600161037e565b50600061037e565b600061075483836104b2565b15610740576000838152602081815260408083206001600160a01b0386168085529252808320805460ff1916905551339286917ff6391f5c32d9c69d2a47ea670b442974b53935d1edc7fd64eb21e047a839171b9190a450600161037e565b6103ee83846001600160a01b031663a9059cbb8585604051602401610677929190610c0d565b6002600154036107fc57604051633ee5aeb560e01b815260040160405180910390fd5b6002600155565b80471015610826573060405163cd78605960e01b81526004016100c39190610bd6565b6000826001600160a01b03168260405160006040518083038185875af1925050503d8060008114610873576040519150601f19603f3d011682016040523d82523d6000602084013e610878565b606091505b50509050806103ee57604051630a12f52160e11b815260040160405180910390fd5b60006108af6001600160a01b03841683610923565b905080516000141580156108d45750808060200190518101906108d29190610c26565b155b156103ee5782604051635274afe760e01b81526004016100c39190610bd6565b6108fe82826104b2565b61091f57808260405163e2517d3f60e01b81526004016100c3929190610c0d565b5050565b606061093183836000610938565b9392505050565b60608147101561095d573060405163cd78605960e01b81526004016100c39190610bd6565b600080856001600160a01b031684866040516109799190610c48565b60006040518083038185875af1925050503d80600081146109b6576040519150601f19603f3d011682016040523d82523d6000602084013e6109bb565b606091505b50915091506109cb8683836109d5565b9695505050505050565b6060826109ea576109e582610a28565b610931565b8151158015610a0157506001600160a01b0384163b155b15610a215783604051639996b31560e01b81526004016100c39190610bd6565b5080610931565b805115610a385780518082602001fd5b604051630a12f52160e11b815260040160405180910390fd5b60208082526010908201526f24b73b30b634b2103a3930b739b332b960811b604082015260600190565b80356001600160a01b0381168114610a9257600080fd5b919050565b60008060008084860360c0811215610aae57600080fd5b85359450610abe60208701610a7b565b9350604086013592506060605f1982011215610ad957600080fd5b509295919450926060019150565b600060208284031215610af957600080fd5b81356001600160e01b03198116811461093157600080fd5b600060208284031215610b2357600080fd5b5035919050565b60008060408385031215610b3d57600080fd5b82359150610b4d60208401610a7b565b90509250929050565b600080600060608486031215610b6b57600080fd5b610b7484610a7b565b9250610b8260208501610a7b565b9150604084013590509250925092565b60008060008060808587031215610ba857600080fd5b84359350610bb860208601610a7b565b9250610bc660408601610a7b565b9396929550929360600135925050565b6001600160a01b0391909116815260200190565b600060208284031215610bfc57600080fd5b813560ff8116811461093157600080fd5b6001600160a01b03929092168252602082015260400190565b600060208284031215610c3857600080fd5b8151801515811461093157600080fd5b6000825160005b81811015610c695760208186018101518583015201610c4f565b50600092019182525091905056fe4f78afe9dfc9a0cb0441c27b9405070cd2a48b490636a7bdd09f355e33a5d7dea2646970667358221220ed1d850184fbfba4c2e4d4877cdc33418fe8db2f34067d20cc9c9a0c8970ccbb64736f6c63430008180033a729ef4e25027bc652fc8b5c4d1d902947361fa7c8e7b4905e877823f27331b3",
  "devdoc": {
    "errors": {
      "AccessControlBadConfirmation()": [
        {
          "details": "The caller of a function is not the expected one. NOTE: Don't confuse with {AccessControlUnauthorizedAccount}."
        }
      ],
      "AccessControlUnauthorizedAccount(address,bytes32)": [
        {
          "details": "The `account` is missing a role."
        }
      ],
      "AddressEmptyCode(address)": [
        {
          "details": "There's no code at `target` (it is not a contract)."
        }
      ],
      "AddressInsufficientBalance(address)": [
        {
          "details": "The ETH balance of the account is not enough to perform the operation."
        }
      ],
      "FailedInnerCall()": [
        {
          "details": "A call to an address target failed. The target may have reverted."
        }
      ],
      "ReentrancyGuardReentrantCall()": [
        {
          "details": "Unauthorized reentrant call."
        }
      ],
      "SafeERC20FailedOperation(address)": [
        {
          "details": "An operation with an ERC20 token failed."
        }
      ]
    },
    "events": {
      "RoleAdminChanged(bytes32,bytes32,bytes32)": {
        "details": "Emitted when `newAdminRole` is set as ``role``'s admin role, replacing `previousAdminRole` `DEFAULT_ADMIN_ROLE` is the starting admin for all roles, despite {RoleAdminChanged} not being emitted signaling this."
      },
      "RoleGranted(bytes32,address,address)": {
        "details": "Emitted when `account` is granted `role`. `sender` is the account that originated the contract call, an admin role bearer except when using {AccessControl-_setupRole}."
      },
      "RoleRevoked(bytes32,address,address)": {
        "details": "Emitted when `account` is revoked `role`. `sender` is the account that originated the contract call:   - if using `revokeRole`, it is the admin role bearer   - if using `renounceRole`, it is the role bearer (i.e. `account`)"
      }
    },
    "kind": "dev",
    "methods": {
      "constructor": {
        "details": "initialize bridge",
        "params": {
          "_admin": "admin address of bridge"
        }
      },
      "deposit(bytes32,address,uint256,(bytes32,bytes32,uint8))": {
        "details": "deposit wbtc to bridge. Users call this function",
        "params": {
          "_amount": "wbtc amount to bridge",
          "_key": "transaction key",
          "_sig": "signature of keeper",
          "_token": "deposit token"
        }
      },
      "getRoleAdmin(bytes32)": {
        "details": "Returns the admin role that controls `role`. See {grantRole} and {revokeRole}. To change a role's admin, use {_setRoleAdmin}."
      },
      "grantRole(bytes32,address)": {
        "details": "Grants `role` to `account`. If `account` had not been already granted `role`, emits a {RoleGranted} event. Requirements: - the caller must have ``role``'s admin role. May emit a {RoleGranted} event."
      },
      "hasRole(bytes32,address)": {
        "details": "Returns `true` if `account` has been granted `role`."
      },
      "renounceRole(bytes32,address)": {
        "details": "Revokes `role` from the calling account. Roles are often managed via {grantRole} and {revokeRole}: this function's purpose is to provide a mechanism for accounts to lose their privileges if they are compromised (such as when a trusted device is misplaced). If the calling account had been revoked `role`, emits a {RoleRevoked} event. Requirements: - the caller must be `callerConfirmation`. May emit a {RoleRevoked} event."
      },
      "revokeRole(bytes32,address)": {
        "details": "Revokes `role` from `account`. If `account` had been granted `role`, emits a {RoleRevoked} event. Requirements: - the caller must have ``role``'s admin role. May emit a {RoleRevoked} event."
      },
      "supportsInterface(bytes4)": {
        "details": "See {IERC165-supportsInterface}."
      },
      "withdraw(bytes32,address,address,uint256)": {
        "details": "send wbtc to user. Keepers call this function to send btc to users",
        "params": {
          "_amount": "wbtc amount to send",
          "_key": "transaction key",
          "_to": "address of user",
          "_token": "token to withdraw"
        }
      },
      "withdrawPool(address,address,uint256)": {
        "details": "owner can withdraw tokens of contract"
      }
    },
    "stateVariables": {
      "ADMIN_ROLE": {
        "details": "roles"
      }
    },
    "title": "Bridge contract        bridges to another networks",
    "version": 1
  },
  "userdoc": {
    "kind": "user",
    "methods": {},
    "version": 1
  },
  "storageLayout": {
    "storage": [
      {
        "astId": 26,
        "contract": "contracts/Bridge.sol:Bridge",
        "label": "_roles",
        "offset": 0,
        "slot": "0",
        "type": "t_mapping(t_bytes32,t_struct(RoleData)21_storage)"
      },
      {
        "astId": 1754,
        "contract": "contracts/Bridge.sol:Bridge",
        "label": "_status",
        "offset": 0,
        "slot": "1",
        "type": "t_uint256"
      },
      {
        "astId": 1875,
        "contract": "contracts/Bridge.sol:Bridge",
        "label": "chainId",
        "offset": 0,
        "slot": "2",
        "type": "t_uint256"
      }
    ],
    "types": {
      "t_address": {
        "encoding": "inplace",
        "label": "address",
        "numberOfBytes": "20"
      },
      "t_bool": {
        "encoding": "inplace",
        "label": "bool",
        "numberOfBytes": "1"
      },
      "t_bytes32": {
        "encoding": "inplace",
        "label": "bytes32",
        "numberOfBytes": "32"
      },
      "t_mapping(t_address,t_bool)": {
        "encoding": "mapping",
        "key": "t_address",
        "label": "mapping(address => bool)",
        "numberOfBytes": "32",
        "value": "t_bool"
      },
      "t_mapping(t_bytes32,t_struct(RoleData)21_storage)": {
        "encoding": "mapping",
        "key": "t_bytes32",
        "label": "mapping(bytes32 => struct AccessControl.RoleData)",
        "numberOfBytes": "32",
        "value": "t_struct(RoleData)21_storage"
      },
      "t_struct(RoleData)21_storage": {
        "encoding": "inplace",
        "label": "struct AccessControl.RoleData",
        "members": [
          {
            "astId": 18,
            "contract": "contracts/Bridge.sol:Bridge",
            "label": "hasRole",
            "offset": 0,
            "slot": "0",
            "type": "t_mapping(t_address,t_bool)"
          },
          {
            "astId": 20,
            "contract": "contracts/Bridge.sol:Bridge",
            "label": "adminRole",
            "offset": 0,
            "slot": "1",
            "type": "t_bytes32"
          }
        ],
        "numberOfBytes": "64"
      },
      "t_uint256": {
        "encoding": "inplace",
        "label": "uint256",
        "numberOfBytes": "32"
      }
    }
  }
}