{
  "address": "0xd1Fc0626AB39353ACCF6888332306a83B20b2888",
  "abi": [
    {
      "inputs": [
        {
          "internalType": "address",
          "name": "_token",
          "type": "address"
        },
        {
          "internalType": "address",
          "name": "_admin",
          "type": "address"
        }
      ],
      "stateMutability": "nonpayable",
      "type": "constructor"
    },
    {
      "inputs": [],
      "name": "AccessControlBadConfirmation",
      "type": "error"
    },
    {
      "inputs": [
        {
          "internalType": "address",
          "name": "account",
          "type": "address"
        },
        {
          "internalType": "bytes32",
          "name": "neededRole",
          "type": "bytes32"
        }
      ],
      "name": "AccessControlUnauthorizedAccount",
      "type": "error"
    },
    {
      "inputs": [
        {
          "internalType": "address",
          "name": "target",
          "type": "address"
        }
      ],
      "name": "AddressEmptyCode",
      "type": "error"
    },
    {
      "inputs": [
        {
          "internalType": "address",
          "name": "account",
          "type": "address"
        }
      ],
      "name": "AddressInsufficientBalance",
      "type": "error"
    },
    {
      "inputs": [],
      "name": "FailedInnerCall",
      "type": "error"
    },
    {
      "inputs": [],
      "name": "ReentrancyGuardReentrantCall",
      "type": "error"
    },
    {
      "inputs": [
        {
          "internalType": "address",
          "name": "token",
          "type": "address"
        }
      ],
      "name": "SafeERC20FailedOperation",
      "type": "error"
    },
    {
      "anonymous": false,
      "inputs": [
        {
          "indexed": true,
          "internalType": "bytes32",
          "name": "key",
          "type": "bytes32"
        },
        {
          "indexed": false,
          "internalType": "address",
          "name": "from",
          "type": "address"
        }
      ],
      "name": "Deposit",
      "type": "event"
    },
    {
      "anonymous": false,
      "inputs": [
        {
          "indexed": true,
          "internalType": "bytes32",
          "name": "role",
          "type": "bytes32"
        },
        {
          "indexed": true,
          "internalType": "bytes32",
          "name": "previousAdminRole",
          "type": "bytes32"
        },
        {
          "indexed": true,
          "internalType": "bytes32",
          "name": "newAdminRole",
          "type": "bytes32"
        }
      ],
      "name": "RoleAdminChanged",
      "type": "event"
    },
    {
      "anonymous": false,
      "inputs": [
        {
          "indexed": true,
          "internalType": "bytes32",
          "name": "role",
          "type": "bytes32"
        },
        {
          "indexed": true,
          "internalType": "address",
          "name": "account",
          "type": "address"
        },
        {
          "indexed": true,
          "internalType": "address",
          "name": "sender",
          "type": "address"
        }
      ],
      "name": "RoleGranted",
      "type": "event"
    },
    {
      "anonymous": false,
      "inputs": [
        {
          "indexed": true,
          "internalType": "bytes32",
          "name": "role",
          "type": "bytes32"
        },
        {
          "indexed": true,
          "internalType": "address",
          "name": "account",
          "type": "address"
        },
        {
          "indexed": true,
          "internalType": "address",
          "name": "sender",
          "type": "address"
        }
      ],
      "name": "RoleRevoked",
      "type": "event"
    },
    {
      "anonymous": false,
      "inputs": [
        {
          "indexed": true,
          "internalType": "bytes32",
          "name": "key",
          "type": "bytes32"
        },
        {
          "indexed": false,
          "internalType": "address",
          "name": "to",
          "type": "address"
        }
      ],
      "name": "Withdraw",
      "type": "event"
    },
    {
      "stateMutability": "payable",
      "type": "fallback"
    },
    {
      "inputs": [],
      "name": "ADMIN_ROLE",
      "outputs": [
        {
          "internalType": "bytes32",
          "name": "",
          "type": "bytes32"
        }
      ],
      "stateMutability": "view",
      "type": "function"
    },
    {
      "inputs": [],
      "name": "DEFAULT_ADMIN_ROLE",
      "outputs": [
        {
          "internalType": "bytes32",
          "name": "",
          "type": "bytes32"
        }
      ],
      "stateMutability": "view",
      "type": "function"
    },
    {
      "inputs": [],
      "name": "KEEPER_ROLE",
      "outputs": [
        {
          "internalType": "bytes32",
          "name": "",
          "type": "bytes32"
        }
      ],
      "stateMutability": "view",
      "type": "function"
    },
    {
      "inputs": [],
      "name": "chainId",
      "outputs": [
        {
          "internalType": "uint256",
          "name": "",
          "type": "uint256"
        }
      ],
      "stateMutability": "view",
      "type": "function"
    },
    {
      "inputs": [
        {
          "internalType": "bytes32",
          "name": "_key",
          "type": "bytes32"
        },
        {
          "internalType": "uint256",
          "name": "_amount",
          "type": "uint256"
        },
        {
          "components": [
            {
              "internalType": "bytes32",
              "name": "r",
              "type": "bytes32"
            },
            {
              "internalType": "bytes32",
              "name": "s",
              "type": "bytes32"
            },
            {
              "internalType": "uint8",
              "name": "v",
              "type": "uint8"
            }
          ],
          "internalType": "struct Sig",
          "name": "_sig",
          "type": "tuple"
        }
      ],
      "name": "deposit",
      "outputs": [],
      "stateMutability": "nonpayable",
      "type": "function"
    },
    {
      "inputs": [
        {
          "internalType": "bytes32",
          "name": "role",
          "type": "bytes32"
        }
      ],
      "name": "getRoleAdmin",
      "outputs": [
        {
          "internalType": "bytes32",
          "name": "",
          "type": "bytes32"
        }
      ],
      "stateMutability": "view",
      "type": "function"
    },
    {
      "inputs": [
        {
          "internalType": "bytes32",
          "name": "role",
          "type": "bytes32"
        },
        {
          "internalType": "address",
          "name": "account",
          "type": "address"
        }
      ],
      "name": "grantRole",
      "outputs": [],
      "stateMutability": "nonpayable",
      "type": "function"
    },
    {
      "inputs": [
        {
          "internalType": "bytes32",
          "name": "role",
          "type": "bytes32"
        },
        {
          "internalType": "address",
          "name": "account",
          "type": "address"
        }
      ],
      "name": "hasRole",
      "outputs": [
        {
          "internalType": "bool",
          "name": "",
          "type": "bool"
        }
      ],
      "stateMutability": "view",
      "type": "function"
    },
    {
      "inputs": [
        {
          "internalType": "bytes32",
          "name": "role",
          "type": "bytes32"
        },
        {
          "internalType": "address",
          "name": "callerConfirmation",
          "type": "address"
        }
      ],
      "name": "renounceRole",
      "outputs": [],
      "stateMutability": "nonpayable",
      "type": "function"
    },
    {
      "inputs": [
        {
          "internalType": "bytes32",
          "name": "role",
          "type": "bytes32"
        },
        {
          "internalType": "address",
          "name": "account",
          "type": "address"
        }
      ],
      "name": "revokeRole",
      "outputs": [],
      "stateMutability": "nonpayable",
      "type": "function"
    },
    {
      "inputs": [
        {
          "internalType": "bytes4",
          "name": "interfaceId",
          "type": "bytes4"
        }
      ],
      "name": "supportsInterface",
      "outputs": [
        {
          "internalType": "bool",
          "name": "",
          "type": "bool"
        }
      ],
      "stateMutability": "view",
      "type": "function"
    },
    {
      "inputs": [],
      "name": "token",
      "outputs": [
        {
          "internalType": "contract IWBTC",
          "name": "",
          "type": "address"
        }
      ],
      "stateMutability": "view",
      "type": "function"
    },
    {
      "inputs": [
        {
          "internalType": "bytes32",
          "name": "_key",
          "type": "bytes32"
        },
        {
          "internalType": "address",
          "name": "_to",
          "type": "address"
        },
        {
          "internalType": "uint256",
          "name": "_amount",
          "type": "uint256"
        }
      ],
      "name": "withdraw",
      "outputs": [],
      "stateMutability": "nonpayable",
      "type": "function"
    },
    {
      "inputs": [
        {
          "internalType": "address",
          "name": "_token",
          "type": "address"
        },
        {
          "internalType": "address",
          "name": "_to",
          "type": "address"
        },
        {
          "internalType": "uint256",
          "name": "_amount",
          "type": "uint256"
        }
      ],
      "name": "withdrawPool",
      "outputs": [],
      "stateMutability": "nonpayable",
      "type": "function"
    },
    {
      "stateMutability": "payable",
      "type": "receive"
    }
  ],
  "transactionHash": "0x9128758bc84433ccd8d5f8071e2044439ac1b452f98f0f0f5ef3d51c9caa4390",
  "args": [
    "0xa2342a20Ec449Aee95EC7137d4a2263f53c553aD",
    "0x1363a979EB9D2054414dfCDD023412f59c9F08cC"
  ],
  "numDeployments": 1,
  "solcInputHash": "d95c3c5810b4b2a79c408ba8c8d76c19",
  "bytecode": "0x608060405234801561001057600080fd5b5060405162000ef138038062000ef1833981016040819052610031916101c4565b60018055600380546001600160a01b0319166001600160a01b03841617905546600281905561008f7f4f78afe9dfc9a0cb0441c27b9405070cd2a48b490636a7bdd09f355e33a5d7de60008051602062000ed18339815191526100b1565b6100a860008051602062000ed1833981519152836100fc565b505050506101f7565b600082815260208190526040808220600101805490849055905190918391839186917fbd79b86ffe0ab8e8776151514217cd7cacd52c909f66475c3af44e129f0b00ff9190a4505050565b6000828152602081815260408083206001600160a01b038516845290915281205460ff1661019e576000838152602081815260408083206001600160a01b03861684529091529020805460ff191660011790556101563390565b6001600160a01b0316826001600160a01b0316847f2f8788117e7eff1d82e926ec794901d17c78024a50270940304540a733656f0d60405160405180910390a45060016101a2565b5060005b92915050565b80516001600160a01b03811681146101bf57600080fd5b919050565b600080604083850312156101d757600080fd5b6101e0836101a8565b91506101ee602084016101a8565b90509250929050565b610cca80620002076000396000f3fe6080604052600436106100b15760003560e01c806301ffc9a7146100ef578063248a9ca3146101245780632f2ff15d14610152578063364bc15a1461017457806336568abe146101965780634c9d7f59146101b65780636200ae1a146101d657806375b238fc146101f657806391d148541461022a5780639a8a05921461024a578063a217fddf14610260578063a6fb97d114610275578063d547741f14610295578063fc0c546a146102b5576100d7565b366100d75760405162461bcd60e51b81526004016100ce90610a7c565b60405180910390fd5b60405162461bcd60e51b81526004016100ce90610a7c565b3480156100fb57600080fd5b5061010f61010a366004610aa6565b6102e2565b60405190151581526020015b60405180910390f35b34801561013057600080fd5b5061014461013f366004610ad0565b610319565b60405190815260200161011b565b34801561015e57600080fd5b5061017261016d366004610b05565b61032e565b005b34801561018057600080fd5b50610144600080516020610c7583398151915281565b3480156101a257600080fd5b506101726101b1366004610b05565b610350565b3480156101c257600080fd5b506101726101d1366004610b31565b610388565b3480156101e257600080fd5b506101726101f1366004610b6d565b6103bd565b34801561020257600080fd5b506101447fa729ef4e25027bc652fc8b5c4d1d902947361fa7c8e7b4905e877823f27331b381565b34801561023657600080fd5b5061010f610245366004610b05565b6104dc565b34801561025657600080fd5b5061014460025481565b34801561026c57600080fd5b50610144600081565b34801561028157600080fd5b50610172610290366004610bae565b610505565b3480156102a157600080fd5b506101726102b0366004610b05565b6105dd565b3480156102c157600080fd5b506003546102d5906001600160a01b031681565b60405161011b9190610bd3565b60006001600160e01b03198216637965db0b60e01b148061031357506301ffc9a760e01b6001600160e01b03198316145b92915050565b60009081526020819052604090206001015490565b61033782610319565b610340816105f9565b61034a8383610606565b50505050565b6001600160a01b03811633146103795760405163334bd91960e11b815260040160405180910390fd5b6103838282610698565b505050565b7fa729ef4e25027bc652fc8b5c4d1d902947361fa7c8e7b4905e877823f27331b36103b2816105f9565b61034a848484610703565b6103c93384848461075b565b6104155760405162461bcd60e51b815260206004820152601d60248201527f4254434272696467653a20696e76616c696420706172616d657465727300000060448201526064016100ce565b6003546001600160a01b03166323b872dd336040516001600160e01b031960e084901b1681526001600160a01b039091166004820152306024820152604481018590526064016020604051808303816000875af115801561047a573d6000803e3d6000fd5b505050506040513d601f19601f8201168201806040525081019061049e9190610be7565b50827f486242080fa32fab3d0c1b35cf4b72db37f659787c4ee1a3cebcea1f7274c843336040516104cf9190610bd3565b60405180910390a2505050565b6000918252602082815260408084206001600160a01b0393909316845291905290205460ff1690565b61050d61089b565b600080516020610c75833981519152610525816105f9565b60035460405163a9059cbb60e01b81526001600160a01b039091169063a9059cbb906105579086908690600401610c09565b6020604051808303816000875af1158015610576573d6000803e3d6000fd5b505050506040513d601f19601f8201168201806040525081019061059a9190610be7565b50837f0448f4c3f7e202963aee589c062ccd162bcad2d1e20f233e7092cf77dacc61df846040516105cb9190610bd3565b60405180910390a25061038360018055565b6105e682610319565b6105ef816105f9565b61034a8383610698565b61060381336108c5565b50565b600061061283836104dc565b610690576000838152602081815260408083206001600160a01b03861684529091529020805460ff191660011790556106483390565b6001600160a01b0316826001600160a01b0316847f2f8788117e7eff1d82e926ec794901d17c78024a50270940304540a733656f0d60405160405180910390a4506001610313565b506000610313565b60006106a483836104dc565b15610690576000838152602081815260408083206001600160a01b0386168085529252808320805460ff1916905551339286917ff6391f5c32d9c69d2a47ea670b442974b53935d1edc7fd64eb21e047a839171b9190a4506001610313565b61038383846001600160a01b031663a9059cbb8585604051602401610729929190610c09565b604051602081830303815290604052915060e01b6020820180516001600160e01b0383818316178352505050506108f4565b6002546040516001600160601b0319606087901b1660208201526034810185905260548101849052607481019190915260009081906094016040516020818303038152906040528051906020012090506000816040516020016107e991907b0ca2ba3432b932bab69029b4b3b732b21026b2b9b9b0b3b29d05199960211b8152601c810191909152603c0190565b60405160208183030381529060405280519060200120905060006001828660400160208101906108199190610c22565b604080516000815260208181018084529490945260ff909216908201528735606082015290870135608082015260a0016020604051602081039080840390855afa15801561086b573d6000803e3d6000fd5b50505060206040510351905061088f600080516020610c75833981519152826104dc565b98975050505050505050565b6002600154036108be57604051633ee5aeb560e01b815260040160405180910390fd5b6002600155565b6108cf82826104dc565b6108f057808260405163e2517d3f60e01b81526004016100ce929190610c09565b5050565b60006109096001600160a01b0384168361094e565b9050805160001415801561092e57508080602001905181019061092c9190610be7565b155b156103835782604051635274afe760e01b81526004016100ce9190610bd3565b606061095c83836000610963565b9392505050565b606081471015610988573060405163cd78605960e01b81526004016100ce9190610bd3565b600080856001600160a01b031684866040516109a49190610c45565b60006040518083038185875af1925050503d80600081146109e1576040519150601f19603f3d011682016040523d82523d6000602084013e6109e6565b606091505b50915091506109f6868383610a00565b9695505050505050565b606082610a1557610a1082610a53565b61095c565b8151158015610a2c57506001600160a01b0384163b155b15610a4c5783604051639996b31560e01b81526004016100ce9190610bd3565b508061095c565b805115610a635780518082602001fd5b604051630a12f52160e11b815260040160405180910390fd5b60208082526010908201526f24b73b30b634b2103a3930b739b332b960811b604082015260600190565b600060208284031215610ab857600080fd5b81356001600160e01b03198116811461095c57600080fd5b600060208284031215610ae257600080fd5b5035919050565b80356001600160a01b0381168114610b0057600080fd5b919050565b60008060408385031215610b1857600080fd5b82359150610b2860208401610ae9565b90509250929050565b600080600060608486031215610b4657600080fd5b610b4f84610ae9565b9250610b5d60208501610ae9565b9150604084013590509250925092565b600080600083850360a0811215610b8357600080fd5b84359350602085013592506060603f1982011215610ba057600080fd5b506040840190509250925092565b600080600060608486031215610bc357600080fd5b83359250610b5d60208501610ae9565b6001600160a01b0391909116815260200190565b600060208284031215610bf957600080fd5b8151801515811461095c57600080fd5b6001600160a01b03929092168252602082015260400190565b600060208284031215610c3457600080fd5b813560ff8116811461095c57600080fd5b6000825160005b81811015610c665760208186018101518583015201610c4c565b50600092019182525091905056fe4f78afe9dfc9a0cb0441c27b9405070cd2a48b490636a7bdd09f355e33a5d7dea2646970667358221220ca09a0f0abc725da7671fa1cf513164d137f31094e91425c48982ef05b0ee45e64736f6c63430008140033a729ef4e25027bc652fc8b5c4d1d902947361fa7c8e7b4905e877823f27331b3",
  "devdoc": {
    "errors": {
      "AccessControlBadConfirmation()": [
        {
          "details": "The caller of a function is not the expected one. NOTE: Don't confuse with {AccessControlUnauthorizedAccount}."
        }
      ],
      "AccessControlUnauthorizedAccount(address,bytes32)": [
        {
          "details": "The `account` is missing a role."
        }
      ],
      "AddressEmptyCode(address)": [
        {
          "details": "There's no code at `target` (it is not a contract)."
        }
      ],
      "AddressInsufficientBalance(address)": [
        {
          "details": "The ETH balance of the account is not enough to perform the operation."
        }
      ],
      "FailedInnerCall()": [
        {
          "details": "A call to an address target failed. The target may have reverted."
        }
      ],
      "ReentrancyGuardReentrantCall()": [
        {
          "details": "Unauthorized reentrant call."
        }
      ],
      "SafeERC20FailedOperation(address)": [
        {
          "details": "An operation with an ERC20 token failed."
        }
      ]
    },
    "events": {
      "RoleAdminChanged(bytes32,bytes32,bytes32)": {
        "details": "Emitted when `newAdminRole` is set as ``role``'s admin role, replacing `previousAdminRole` `DEFAULT_ADMIN_ROLE` is the starting admin for all roles, despite {RoleAdminChanged} not being emitted signaling this."
      },
      "RoleGranted(bytes32,address,address)": {
        "details": "Emitted when `account` is granted `role`. `sender` is the account that originated the contract call, an admin role bearer except when using {AccessControl-_setupRole}."
      },
      "RoleRevoked(bytes32,address,address)": {
        "details": "Emitted when `account` is revoked `role`. `sender` is the account that originated the contract call:   - if using `revokeRole`, it is the admin role bearer   - if using `renounceRole`, it is the role bearer (i.e. `account`)"
      }
    },
    "kind": "dev",
    "methods": {
      "constructor": {
        "details": "initialize bridge",
        "params": {
          "_admin": "admin address of bridge",
          "_token": "wbtc address on chain"
        }
      },
      "deposit(bytes32,uint256,(bytes32,bytes32,uint8))": {
        "details": "deposit wbtc to bridge. Users call this function",
        "params": {
          "_amount": "wbtc amount to bridge",
          "_key": "transaction key",
          "_sig": "signature of keeper"
        }
      },
      "getRoleAdmin(bytes32)": {
        "details": "Returns the admin role that controls `role`. See {grantRole} and {revokeRole}. To change a role's admin, use {_setRoleAdmin}."
      },
      "grantRole(bytes32,address)": {
        "details": "Grants `role` to `account`. If `account` had not been already granted `role`, emits a {RoleGranted} event. Requirements: - the caller must have ``role``'s admin role. May emit a {RoleGranted} event."
      },
      "hasRole(bytes32,address)": {
        "details": "Returns `true` if `account` has been granted `role`."
      },
      "renounceRole(bytes32,address)": {
        "details": "Revokes `role` from the calling account. Roles are often managed via {grantRole} and {revokeRole}: this function's purpose is to provide a mechanism for accounts to lose their privileges if they are compromised (such as when a trusted device is misplaced). If the calling account had been revoked `role`, emits a {RoleRevoked} event. Requirements: - the caller must be `callerConfirmation`. May emit a {RoleRevoked} event."
      },
      "revokeRole(bytes32,address)": {
        "details": "Revokes `role` from `account`. If `account` had been granted `role`, emits a {RoleRevoked} event. Requirements: - the caller must have ``role``'s admin role. May emit a {RoleRevoked} event."
      },
      "supportsInterface(bytes4)": {
        "details": "See {IERC165-supportsInterface}."
      },
      "withdraw(bytes32,address,uint256)": {
        "details": "send wbtc to user. Keepers call this function to send btc to users",
        "params": {
          "_amount": "wbtc amount to send",
          "_key": "transaction key",
          "_to": "address of user"
        }
      },
      "withdrawPool(address,address,uint256)": {
        "details": "owner can withdraw tokens of contract"
      }
    },
    "stateVariables": {
      "ADMIN_ROLE": {
        "details": "roles"
      }
    },
    "title": "BTC Bridge contract        bridges wbtc to another networks",
    "version": 1
  },
  "userdoc": {
    "kind": "user",
    "methods": {},
    "version": 1
  },
  "storageLayout": {
    "storage": [
      {
        "astId": 26,
        "contract": "contracts/BtcBridge.sol:BTCBridge",
        "label": "_roles",
        "offset": 0,
        "slot": "0",
        "type": "t_mapping(t_bytes32,t_struct(RoleData)21_storage)"
      },
      {
        "astId": 1754,
        "contract": "contracts/BtcBridge.sol:BTCBridge",
        "label": "_status",
        "offset": 0,
        "slot": "1",
        "type": "t_uint256"
      },
      {
        "astId": 1872,
        "contract": "contracts/BtcBridge.sol:BTCBridge",
        "label": "chainId",
        "offset": 0,
        "slot": "2",
        "type": "t_uint256"
      },
      {
        "astId": 1875,
        "contract": "contracts/BtcBridge.sol:BTCBridge",
        "label": "token",
        "offset": 0,
        "slot": "3",
        "type": "t_contract(IWBTC)2251"
      }
    ],
    "types": {
      "t_address": {
        "encoding": "inplace",
        "label": "address",
        "numberOfBytes": "20"
      },
      "t_bool": {
        "encoding": "inplace",
        "label": "bool",
        "numberOfBytes": "1"
      },
      "t_bytes32": {
        "encoding": "inplace",
        "label": "bytes32",
        "numberOfBytes": "32"
      },
      "t_contract(IWBTC)2251": {
        "encoding": "inplace",
        "label": "contract IWBTC",
        "numberOfBytes": "20"
      },
      "t_mapping(t_address,t_bool)": {
        "encoding": "mapping",
        "key": "t_address",
        "label": "mapping(address => bool)",
        "numberOfBytes": "32",
        "value": "t_bool"
      },
      "t_mapping(t_bytes32,t_struct(RoleData)21_storage)": {
        "encoding": "mapping",
        "key": "t_bytes32",
        "label": "mapping(bytes32 => struct AccessControl.RoleData)",
        "numberOfBytes": "32",
        "value": "t_struct(RoleData)21_storage"
      },
      "t_struct(RoleData)21_storage": {
        "encoding": "inplace",
        "label": "struct AccessControl.RoleData",
        "members": [
          {
            "astId": 18,
            "contract": "contracts/BtcBridge.sol:BTCBridge",
            "label": "hasRole",
            "offset": 0,
            "slot": "0",
            "type": "t_mapping(t_address,t_bool)"
          },
          {
            "astId": 20,
            "contract": "contracts/BtcBridge.sol:BTCBridge",
            "label": "adminRole",
            "offset": 0,
            "slot": "1",
            "type": "t_bytes32"
          }
        ],
        "numberOfBytes": "64"
      },
      "t_uint256": {
        "encoding": "inplace",
        "label": "uint256",
        "numberOfBytes": "32"
      }
    }
  }
}